{
  "_format": "hh-sol-artifact-1",
  "contractName": "WavePortal",
  "sourceName": "contracts/Waveportal.sol",
  "abi": [
    {
      "inputs": [],
      "stateMutability": "nonpayable",
      "type": "constructor"
    },
    {
      "inputs": [],
      "name": "getTotalWaves",
      "outputs": [
        {
          "internalType": "uint256",
          "name": "",
          "type": "uint256"
        }
      ],
      "stateMutability": "view",
      "type": "function"
    },
    {
      "inputs": [],
      "name": "wave",
      "outputs": [],
      "stateMutability": "nonpayable",
      "type": "function"
    },
    {
      "inputs": [],
      "name": "waveAndSayHi",
      "outputs": [],
      "stateMutability": "nonpayable",
      "type": "function"
    }
  ],
  "bytecode": "0x608060405234801561001057600080fd5b506100596040518060400160405280601581526020017f4920616d206120736d61727420636f6e7472616374000000000000000000000081525061005e60201b6101651760201c565b6101e1565b6100fa81604051602401610072919061015f565b6040516020818303038152906040527f41304fac000000000000000000000000000000000000000000000000000000007bffffffffffffffffffffffffffffffffffffffffffffffffffffffff19166020820180517bffffffffffffffffffffffffffffffffffffffffffffffffffffffff83818316178352505050506100fd60201b60201c565b50565b60008151905060006a636f6e736f6c652e6c6f679050602083016000808483855afa5050505050565b600061013182610181565b61013b818561018c565b935061014b81856020860161019d565b610154816101d0565b840191505092915050565b600060208201905081810360008301526101798184610126565b905092915050565b600081519050919050565b600082825260208201905092915050565b60005b838110156101bb5780820151818401526020810190506101a0565b838111156101ca576000848401525b50505050565b6000601f19601f8301169050919050565b6105aa806101f06000396000f3fe608060405234801561001057600080fd5b50600436106100415760003560e01c80633f5094e0146100465780636fe15b44146100505780639a2cdc081461005a575b600080fd5b61004e610078565b005b6100586100c0565b005b61006261011a565b60405161006f9190610438565b60405180910390f35b6100806100c0565b6100be6040518060400160405280600881526020017f4869207468657265000000000000000000000000000000000000000000000000815250610165565b565b60016000808282546100d2919061046f565b925050819055506101186040518060400160405280600d81526020017f2573206861732077617665642100000000000000000000000000000000000000815250336101fe565b565b600061015d6040518060400160405280601781526020017f5765206861766520256420746f74616c2077617665732100000000000000000081525060005461029a565b600054905090565b6101fb8160405160240161017991906103b6565b6040516020818303038152906040527f41304fac000000000000000000000000000000000000000000000000000000007bffffffffffffffffffffffffffffffffffffffffffffffffffffffff19166020820180517bffffffffffffffffffffffffffffffffffffffffffffffffffffffff8381831617835250505050610336565b50565b61029682826040516024016102149291906103d8565b6040516020818303038152906040527f319af333000000000000000000000000000000000000000000000000000000007bffffffffffffffffffffffffffffffffffffffffffffffffffffffff19166020820180517bffffffffffffffffffffffffffffffffffffffffffffffffffffffff8381831617835250505050610336565b5050565b61033282826040516024016102b0929190610408565b6040516020818303038152906040527f9710a9d0000000000000000000000000000000000000000000000000000000007bffffffffffffffffffffffffffffffffffffffffffffffffffffffff19166020820180517bffffffffffffffffffffffffffffffffffffffffffffffffffffffff8381831617835250505050610336565b5050565b60008151905060006a636f6e736f6c652e6c6f679050602083016000808483855afa5050505050565b610368816104c5565b82525050565b600061037982610453565b610383818561045e565b9350610393818560208601610501565b61039c81610563565b840191505092915050565b6103b0816104f7565b82525050565b600060208201905081810360008301526103d0818461036e565b905092915050565b600060408201905081810360008301526103f2818561036e565b9050610401602083018461035f565b9392505050565b60006040820190508181036000830152610422818561036e565b905061043160208301846103a7565b9392505050565b600060208201905061044d60008301846103a7565b92915050565b600081519050919050565b600082825260208201905092915050565b600061047a826104f7565b9150610485836104f7565b9250827fffffffffffffffffffffffffffffffffffffffffffffffffffffffffffffffff038211156104ba576104b9610534565b5b828201905092915050565b60006104d0826104d7565b9050919050565b600073ffffffffffffffffffffffffffffffffffffffff82169050919050565b6000819050919050565b60005b8381101561051f578082015181840152602081019050610504565b8381111561052e576000848401525b50505050565b7f4e487b7100000000000000000000000000000000000000000000000000000000600052601160045260246000fd5b6000601f19601f830116905091905056fea2646970667358221220c32349a6948ac9c5e1a330c76cf2cc17b3ee11d37e002c1d000f642dfd2a197664736f6c63430008040033",
  "linkReferences": {},
  "deployedLinkReferences": {}
}